{
  "_format": "hh-sol-artifact-1",
  "contractName": "Payment",
  "sourceName": "contracts/Payment.sol",
  "abi": [
    {
      "inputs": [],
      "stateMutability": "nonpayable",
      "type": "constructor"
    },
    {
      "inputs": [
        {
          "internalType": "address",
          "name": "dev",
          "type": "address"
        },
        {
          "internalType": "address",
          "name": "client",
          "type": "address"
        },
        {
          "internalType": "uint256",
          "name": "tier",
          "type": "uint256"
        }
      ],
      "name": "addClient",
      "outputs": [],
      "stateMutability": "nonpayable",
      "type": "function"
    },
    {
      "inputs": [
        {
          "internalType": "address",
          "name": "dev",
          "type": "address"
        }
      ],
      "name": "getAllClients",
      "outputs": [
        {
          "internalType": "address[]",
          "name": "",
          "type": "address[]"
        }
      ],
      "stateMutability": "view",
      "type": "function"
    },
    {
      "inputs": [],
      "name": "owner",
      "outputs": [
        {
          "internalType": "address",
          "name": "",
          "type": "address"
        }
      ],
      "stateMutability": "view",
      "type": "function"
    },
    {
      "inputs": [
        {
          "internalType": "address payable",
          "name": "dev",
          "type": "address"
        }
      ],
      "name": "pay",
      "outputs": [],
      "stateMutability": "payable",
      "type": "function"
    }
  ],
  "bytecode": "0x608060405234801561001057600080fd5b50336000806101000a81548173ffffffffffffffffffffffffffffffffffffffff021916908373ffffffffffffffffffffffffffffffffffffffff1602179055506107c8806100606000396000f3fe60806040526004361061003f5760003560e01c80630c11dedd146100445780632b14b712146100605780638da5cb5b14610089578063a64085cc146100b4575b600080fd5b61005e60048036038101906100599190610505565b6100f1565b005b34801561006c57600080fd5b506100876004803603810190610082919061052e565b610145565b005b34801561009557600080fd5b5061009e610236565b6040516100ab9190610611565b60405180910390f35b3480156100c057600080fd5b506100db60048036038101906100d691906104dc565b61025a565b6040516100e8919061062c565b60405180910390f35b6000341115610142578073ffffffffffffffffffffffffffffffffffffffff166108fc349081150290604051600060405180830381858888f19350505050158015610140573d6000803e3d6000fd5b505b50565b600060405180604001604052808473ffffffffffffffffffffffffffffffffffffffff168152602001838152509050600160008573ffffffffffffffffffffffffffffffffffffffff1673ffffffffffffffffffffffffffffffffffffffff16815260200190815260200160002081908060018154018082558091505060019003906000526020600020906002020160009091909190915060008201518160000160006101000a81548173ffffffffffffffffffffffffffffffffffffffff021916908373ffffffffffffffffffffffffffffffffffffffff16021790555060208201518160010155505050505050565b60008054906101000a900473ffffffffffffffffffffffffffffffffffffffff1681565b60606000600160008473ffffffffffffffffffffffffffffffffffffffff1673ffffffffffffffffffffffffffffffffffffffff1681526020019081526020016000208054905067ffffffffffffffff8111156102e0577f4e487b7100000000000000000000000000000000000000000000000000000000600052604160045260246000fd5b60405190808252806020026020018201604052801561030e5781602001602082028036833780820191505090505b50905060005b600160008573ffffffffffffffffffffffffffffffffffffffff1673ffffffffffffffffffffffffffffffffffffffff16815260200190815260200160002080549050811015610493576000600160008673ffffffffffffffffffffffffffffffffffffffff1673ffffffffffffffffffffffffffffffffffffffff16815260200190815260200160002082815481106103d7577f4e487b7100000000000000000000000000000000000000000000000000000000600052603260045260246000fd5b906000526020600020906002020160000160009054906101000a900473ffffffffffffffffffffffffffffffffffffffff16905080838381518110610445577f4e487b7100000000000000000000000000000000000000000000000000000000600052603260045260246000fd5b602002602001019073ffffffffffffffffffffffffffffffffffffffff16908173ffffffffffffffffffffffffffffffffffffffff168152505050808061048b906106d5565b915050610314565b5080915050919050565b6000813590506104ac8161074d565b92915050565b6000813590506104c181610764565b92915050565b6000813590506104d68161077b565b92915050565b6000602082840312156104ee57600080fd5b60006104fc8482850161049d565b91505092915050565b60006020828403121561051757600080fd5b6000610525848285016104b2565b91505092915050565b60008060006060848603121561054357600080fd5b60006105518682870161049d565b93505060206105628682870161049d565b9250506040610573868287016104c7565b9150509250925092565b60006105898383610595565b60208301905092915050565b61059e81610687565b82525050565b6105ad81610687565b82525050565b60006105be8261065e565b6105c88185610676565b93506105d38361064e565b8060005b838110156106045781516105eb888261057d565b97506105f683610669565b9250506001810190506105d7565b5085935050505092915050565b600060208201905061062660008301846105a4565b92915050565b6000602082019050818103600083015261064681846105b3565b905092915050565b6000819050602082019050919050565b600081519050919050565b6000602082019050919050565b600082825260208201905092915050565b6000610692826106ab565b9050919050565b60006106a4826106ab565b9050919050565b600073ffffffffffffffffffffffffffffffffffffffff82169050919050565b6000819050919050565b60006106e0826106cb565b91507fffffffffffffffffffffffffffffffffffffffffffffffffffffffffffffffff8214156107135761071261071e565b5b600182019050919050565b7f4e487b7100000000000000000000000000000000000000000000000000000000600052601160045260246000fd5b61075681610687565b811461076157600080fd5b50565b61076d81610699565b811461077857600080fd5b50565b610784816106cb565b811461078f57600080fd5b5056fea2646970667358221220b321d8a7fb3ac9bdb541a906770049bba1e79553bc2bc115b291f146f0ff486364736f6c63430008040033",
  "linkReferences": {},
  "deployedLinkReferences": {}
}