{
  "_format": "hh-sol-artifact-1",
  "contractName": "Payment",
  "sourceName": "contracts/Payment.sol",
  "abi": [
    {
      "inputs": [],
      "stateMutability": "nonpayable",
      "type": "constructor"
    },
    {
      "inputs": [
        {
          "internalType": "address",
          "name": "dev",
          "type": "address"
        },
        {
          "internalType": "address",
          "name": "client",
          "type": "address"
        },
        {
          "internalType": "uint256",
          "name": "tier",
          "type": "uint256"
        }
      ],
      "name": "addClient",
      "outputs": [],
      "stateMutability": "nonpayable",
      "type": "function"
    },
    {
      "inputs": [],
      "name": "owner",
      "outputs": [
        {
          "internalType": "address",
          "name": "",
          "type": "address"
        }
      ],
      "stateMutability": "view",
      "type": "function"
    },
    {
      "inputs": [
        {
          "internalType": "address payable",
          "name": "dev",
          "type": "address"
        }
      ],
      "name": "pay",
      "outputs": [],
      "stateMutability": "payable",
      "type": "function"
    }
  ],
  "bytecode": "0x608060405234801561001057600080fd5b50336000806101000a81548173ffffffffffffffffffffffffffffffffffffffff021916908373ffffffffffffffffffffffffffffffffffffffff1602179055506103bc806100606000396000f3fe6080604052600436106100345760003560e01c80630c11dedd146100395780632b14b712146100555780638da5cb5b1461007e575b600080fd5b610053600480360381019061004e9190610251565b6100a9565b005b34801561006157600080fd5b5061007c6004803603810190610077919061027a565b6100fd565b005b34801561008a57600080fd5b506100936101ee565b6040516100a091906102d8565b60405180910390f35b60003411156100fa578073ffffffffffffffffffffffffffffffffffffffff166108fc349081150290604051600060405180830381858888f193505050501580156100f8573d6000803e3d6000fd5b505b50565b600060405180604001604052808473ffffffffffffffffffffffffffffffffffffffff168152602001838152509050600160008573ffffffffffffffffffffffffffffffffffffffff1673ffffffffffffffffffffffffffffffffffffffff16815260200190815260200160002081908060018154018082558091505060019003906000526020600020906002020160009091909190915060008201518160000160006101000a81548173ffffffffffffffffffffffffffffffffffffffff021916908373ffffffffffffffffffffffffffffffffffffffff16021790555060208201518160010155505050505050565b60008054906101000a900473ffffffffffffffffffffffffffffffffffffffff1681565b60008135905061022181610341565b92915050565b60008135905061023681610358565b92915050565b60008135905061024b8161036f565b92915050565b60006020828403121561026357600080fd5b600061027184828501610227565b91505092915050565b60008060006060848603121561028f57600080fd5b600061029d86828701610212565b93505060206102ae86828701610212565b92505060406102bf8682870161023c565b9150509250925092565b6102d2816102f3565b82525050565b60006020820190506102ed60008301846102c9565b92915050565b60006102fe82610317565b9050919050565b600061031082610317565b9050919050565b600073ffffffffffffffffffffffffffffffffffffffff82169050919050565b6000819050919050565b61034a816102f3565b811461035557600080fd5b50565b61036181610305565b811461036c57600080fd5b50565b61037881610337565b811461038357600080fd5b5056fea2646970667358221220988c26aa0d55bf73e60d2120ee202b93320d63d5f144b25c97557552bf3e688c64736f6c63430008040033",
  "linkReferences": {},
  "deployedLinkReferences": {}
}